:1000000019C028C027C026C025C024C023C022C0D4
:1000100021C020C01FC01EC01DC01DC01BC01AC0F3
:1000200019C03EC017C016C015C014C013C012C0FE
:1000300011C010C011241FBECFEFCDBFDFE3DEBF64
:100040002FE3A0E0BFE301C01D92A43CB207E1F79B
:100050004BD0C6C0D5CF1F920F920FB60F9211246E
:100060008F93EF93FF9381E08093460A8091C13F85
:100070008F5F803C90F48093C13FE091C13FF0E0FE
:10008000EF5FF04C808180938106FF91EF918F911B
:100090000F900FBE0F901F9018951092C13FEDCF9B
:1000A0001F920F920FB60F9211248F939F93EF938D
:1000B000FF93909110068091003F8F5F803C88F401
:1000C0008093003FE091003FF0E0EF5FF04C9083C1
:1000D000FF91EF919F918F910F900FBE0F901F9006
:1000E00018951092003FEECF88ED93E084BF909377
:1000F0006100809111048860809311048091120442
:1001000088608093120480911304886080931304A4
:10011000809116048460809316048091A00083600F
:100120008093A00081E4809380068091170484600E
:100130008093170487E08093000692E5909302066F
:100140008093060681E080930A06809308068093D8
:10015000400A1092410A27E630E020934C0A30937F
:100160004D0A8093450A789487E692B19270209167
:10017000C33F2917B9F091110DC08F3358F0845146
:10018000282F30E020934C0A30934D0A10924A0AEF
:1001900010924B0A9093C33FEFE3FCE93197F1F7DC
:1001A00000C0000092B194702091C23F2917E9F27B
:1001B00091110DC0883B58F48C5E282F30E02093BD
:1001C0004C0A30934D0A10924A0A10924B0A9093AF
:1001D000C23FEFE3FCE93197F1F700C00000C5CF63
:0401E000F894FFCFC1
:00000001FF
